S01100005465726D6F737461742E7372656350
S113000012C02CC02BC02AC029C028C027C026C0BB
S113001025C024C023C022C021C020C01FC01EC0D0
S11300201DC01CC01BC011241FBECFE5D4E0DEBF21
S1130030CDBF10E0A0E6B0E0E0E9F3E002C0059037
S11300400D92A836B107D9F720E0A8E6B0E001C0C8
S11300501D92A936B207E1F715D098C1D1CF282F48
S1130060207330E035952795359527953595279557
S113007035952795220F922F990F990F290F8F707D
S1130080820F0895CF93DF93CDB7DEB728970FB6CD
S1130090F894DEBF0FBECDBF88E0E0E6F0E0DE01FD
S11300A0119601900D928A95E1F72FE38DE093E08C
S11300B0215080409040E1F700C0000084B382608A
S11300C084BB85B385BB85B3806185BB85B3806202
S11300D085BB84E086BF87E280B981B1816081B944
S11300E084EA86BF06B607FEFDCF80ED83B984E8B7
S11300F086BF06B607FEFDCF82E083B984E886BFDB
S113010006B607FEFDCF84EA86BF06B607FEFDCF1E
S113011081ED83B984E886BF06B607FEFDCF84E887
S113012086BF06B607FEFDCF83B194E996BF06B637
S113013004FCFDCF94DF88508E3010F019E101C02B
S11301401DE181E0F6D0CE01019603D19595879506
S113015095958795212F30E0A90141505109440F0D
S1130160551F440F551F4D5F5F4F841795073CF48F
S113017085B3826085BB85B3886085BB0FC0220FC1
S1130180331F220F331F2F5F3F4F2817390734F4D3
S113019085B38D7F85BB85B3877F85BB2FE986E8D3
S11301A091E0215080409040E1F700C0000091CFE1
S11301B0CF93DF93D82FC0E009C08D2F817044D036
S11301C0D6958BE28A95F1F70000CF5FC830A8F38B
S11301D0DF91CF910895CF93DF93D0E0C0E008C0C2
S11301E0D6954BD08111D06882E38A95F1F7CF5F21
S11301F0C830B0F38D2FDF91CF9108950F931F93E3
S1130200CF93DF938C016AD08823C9F085E5D0DFD2
S1130210D0E0C0E010C0F801ED0FF11D80819C2FEB
S1130220982728E03CE8969508F493272A95D9F76F
S1130230C92FBEDFDF5FD73070F38C2FB9DFDF91BA
S1130240CF911F910F9108952FB7F89491E011C0A9
S113025097B3946097BB00C00000882319F097B34C
S11302609B7F97BB94E19A95F1F797B39B7F97BBDC
S113027090E09111EDCF2FBF08952FB7F89481E04E
S11302800FC087B3846087BB00C0000087B38B7F37
S113029087BB85E08A95F1F786B3982F947080E048
S11302A08111EFCF2FBF02C000C08F5F8F3F11F0CD
S11302B0B29BFACF8F3F19F481E08093680081E00C
S11302C0911101C080E0089587B3846087BB80EA00
S11302D08A95F1F787B38B7F87BB0895CF93CFB708
S11302E0F894F2DF8AE08A95F1F780E002C000001A
S11302F08F5F8F3F11F0B299FACF8F3F41F482E0C4
S11303008093680080E012C000C08F5F01C080E06D
S11303108F3F11F0B29BF8CF8F3F29F481E0809397
S1130320680080E003C01092680081E0CFBFCF91E5
S11303300895CF93C82FD2DF882349F08CEC38DF9F
S113034084E436DFCC2319F098DF8823E9F3CF91D6
S11303500895CF93DF9352DF80916800811111C01B
S11303608EEB26DF38DFC82FD0E035DF20E0382FD2
S11303702C0F3D1F332314F42E5F3F4F822F932FF6
S113038002C08FEF9FEFDF91CF910895F894FFCFD4
S10B03902839E076E0013C008D
S9030000FC
